:040000000204503274
:03000B0002045795
:200010000000E2FBEAF2802C0000E0FBEAF08024E6B50202EBF62200E2B50202EBF22200D6
:20003000E0B50202EBF02230F6E0A88220F5D3EAC6F582228B822230F6E6A88220F5D980E6
:01005000CFE0
:03007E000200512C
:030051000203E7C0
:2000810012089EE58260F9C2AF1208AB858220D2AF7432B5202DC2AF7401B52126E5253045
:2000A100E7067523011205097521007582C012063B75822012068775828012063B75820181
:2000C100120687D2AF7438B5202CC2AFE5217026E52730E7067523011205097521017582D5
:2000E1008012063B7582201206877582C012063B758201120687D2AF12089EE58270F902CA
:200101000081C2AFE5236003120509E5217005E52520E60A7401B5210BE52730E6067523B6
:2001210001120509E52530E7047F0180027F008F2AE5252525F525E52630E705E52504F5A6
:2001410025E52625E0F526E52A600AE52404F524E52604F526E52730E7047F0180027F00DD
:200161008F2AE5272527F527E52830E705E52704F527E52825E0F528E52A600AE52404F552
:2001810024E52804F52875828012063B752B80E52B6019E52B552560047F0280027F208F7A
:2001A10082120687E52BC313F52B80E3752B807401B52B028019E52B552660047F028002B2
:2001C1007F208F82120687E52BC313F52B80E07582C012063B752B80E52B6019E52B55272A
:2001E10060047F0280027F208F82120687E52BC313F52B80E3752B807401B52B028019E5EA
:200201002B552860047F0280027F208F82120687E52BC313F52B80E0E521030354C0FF7486
:20022100804FF58212063B758201120687D2AF120509020103E523700302031EC2AF7582E0
:200241008012063B75822012068775822012068775822012068775822012068775824712A2
:20026100068775824112068775824D12068775824512068775822012068775824F120687C0
:2002810075825612068775824512068775825212068775822012068775822012068775824B
:2002A100201206877582C012063B7582201206877582201206877582201206877582201229
:2002C100068775825312068775824312068775824F12068775825212068775824512068726
:2002E10075823A120687758220120687AF2475F00AEF842430F582120687AF2475F00AEF27
:2003010084AFF074302FF582120687758220120687758220120687758220020687E52D04A8
:20032100F52DAE2C7F00740AC39EFEE49FFFAC2D7D00C3EC9EED64808FF063F08095F04057
:200341004B752D00AE247F00AC2E7D00EC2EF582ED3FF583750B088F0C120990AE82AF83A2
:20036100EE24D6F582EF3409F583E493FFBF010B74014526F526752E018011BF020B7401C7
:200381004528F528752E028003752E007F00C3EF952C4003020236C007120509D0070F804B
:2003A100ED7F00C00712089EE582D00760F5C0071208ABAE82D007C007C00612089EE5827F
:2003C100D006D00770F1BE2305EF701780D5BE2A0280D0BE310040CBEE24C640C6EE24D069
:2003E100FF80C08F82221208981206287508C6750909750A807582081206EA7508CE750905
:2004010009750A807582101206EA75251C7526007527007528E0752900752300752400751C
:200421002100752D00752E001203A285822CE52C24F65003752C0974FF252C4003752C019A
:1C04410090010312048390008112048302023602045D222222220205C202005484
:1709C6000705060714170E0A04051515160C0404010002000100025B
:20045D0075890075A882D28C7535009003E7120483858234E5342430F98781D0D0D083D05B
:20047D0082D0F0D0E022C2AF740FB535047582FF227536037F007E00BE0400502A8EF005E7
:20049D00F07C017D008006EC2CFCED33FDD5F0F7AA357B00EA5204EB5205EC4D70048F3694
:2004BD0080050E8E0780D18536F005F07401800225E0D5F0FB4235858137E536FF75F00A0D
:2004DD00A4243DF581C082C083E4C0E0C0E0C0E0C0E0E536C40354F8F5D0C0D0E5362430A9
:2004FD00F8A681853781D2AF85368222C2AFC0E0C0F0C082C083C0D0E5342430F8A681AF92
:20051D00340F74035FF534E5347006E535FF20E0217401B53406E535FF20E1167402B534C0
:20053D0006E535FF20E20B7403B534D3E535FF30E3CDE5342430F98781D0D0D083D082D0C3
:20055D00F0D0E0D2AF22D20010AF02C2008534F005F07401800225E0D5F0FBF4523574039A
:20057D00B534057534008005E53404F5348534F005F07E017F008006EE2EFEEF33FFD5F0DA
:20059D00F7AC357D00EC5206ED5207EE4F60CFE5342430F98781D0D0D083D082D0F0D0E0D0
:2005BD00A20092AF22C2AFC0E0C0F0C082C083C0D0E5342430F8A681AF340F74035FF534C6
:2005DD00E5347006E535FF20E0217401B53406E535FF20E1167402B53406E535FF20E20B16
:2005FD007403B534D3E535FF30E3CDE538C454F0F58CD2AFE5342430F98781D0D0D083D05A
:07061D0082D0F0D0E0322290
:20062400853C822212065D75820712063B75820F12063B753C0122AF82753C0074F05FF5C4
:2006440090D292C292EFC454F0F590D292C2927582321206E6753C0122753C00759020D277
:2006640092C2927582321206E6D292C2927582321206E6D297D292C2927582321206E675CD
:200684003C0122AF82753C0074F05F4408F590D293D292C292EFC454F0FF74084FF590D24C
:2006A40092C2927582321206E6753C0122AD82AE83AFF08D828E838FF0120974FCA3AD825A
:2006C400AE83EC601C8D828E838FF0120974F582C007C006C005120687D005D006D00780E5
:2006E400D222D582FD22AF8274404FF58212063BAD08AE09AF0A8D828E838FF0120974F546
:2007040082C007C006C005120687D005D006D00774012DFAE43EFB8F048A828B838CF012EC
:200724000974F582C007C006C005120687D005D006D00774022DFAE43EFB8F048A828B83E7
:200744008CF0120974F582C007C006C005120687D005D006D00774032DFAE43EFB8F048AC8
:20076400828B838CF0120974F582C007C006C005120687D005D006D00774042DFAE43EFB34
:200784008F048A828B838CF0120974F582C007C006C005120687D005D006D00774052DFA13
:2007A400E43EFB8F048A828B838CF0120974F582C007C006C005120687D005D006D0077402
:2007C400062DFAE43EFB8F048A828B838CF0120974F582C007C006C005120687D005D00600
:1707E400D00774072DFDE43EFE8D828E838FF0120974F5820206872E
:2007FB00E5A0F4F53BE53B60047582012275820022AEA07F00EEF4FEEFF4EE30E7047582EE
:20081B003722AEA07F00EEF4FEEFF4EE30E60475823622AEA07F00EEF4FEEFF4EE30E504E6
:20083B0075823522AEA07F00EEF4FEEFF4EE30E40475823422AEA07F00EEF4FEEFF4EE30BE
:20085B00E30475823322AEA07F00EEF4FEEFF4EE30E20475823222AEA07F00EEF4FEEFF4DB
:1D087B00EE30E10475823122AEA07F00EEF4FEEFF4EE30E00475823022758200221F
:20089800D2B37580F0227580F0A2B3B39201E433F582227580F774B7B58004758231227476
:2008B800D7B580047582322274E7B58004758233227580FB74BBB580047582342274DBB53C
:2008D80080047582352274EBB58004758236227580FD74BDB580047582372274DDB5800411
:2008F8007582382274EDB58004758239227580FE74BEB5800475822A2274DEB58004758280
:0F091800302274EEB5800475822322758200228E
:20005400C000A88118C0D0B6001B18B610004015B637005010C0E0E65407B406005004E6D5
:0A00740054F8F6D0E0D0D0D00032EE
:20092700E50B450C60467A01E50B25E0F50BE50C334012F50CE582950BE583950C40030A85
:2009470080E6C3E50C13F50CE50B13F50BC3E582950BF5F0E583950C4005F58385F082C330
:0D096700E50C13F50CE50B13F50BDAE1229E
:1C09740020F71430F6148883A88220F507E6A88375830022E280F7E49322E02292
:20099000C2D5E58330E70DD2D5E4C39582F582E49583F583E50C30E70BE4C3950BF50BE496
:1609B000950CF50C12092730D50BE4C39582F582E49583F5832272
:00000001FF
