:0400000002011732B0
:03000B0002011ED1
:200010000000E2FBEAF2802C0000E0FBEAF08024E6B50202EBF62200E2B50202EBF22200D6
:20003000E0B50202EBF02230F6E0A88220F5D3EAC6F582228B822230F6E6A88220F5D980E6
:01005000CFE0
:03007E000200512C
:030051000200F9B1
:20008100752541E52260FC1522E52060FC1520C2AFE5242426F8A6257402B52405752400E0
:2000A1008005E52404F524D2AF05200521745AB5250575254180CCE52504F52580C54389BB
:2000C10020758DFA759850D28EE52160FC1521E52060FC1520C2AFE5232426F987997402C6
:2000E100B523057523008005E52304F523D2AF052005221099D380FB75200175210075225A
:200101000375262075272075282075230090008112014A0200BF02012422222222020289A4
:0301210002005485
:2001240075890075A882D28C7535009000F912014A858234E5342430F98781D0D0D083D0C4
:2001440082D0F0D0E022C2AF740FB535047582FF227536037F007E00BE0400502A8EF00523
:20016400F07C017D008006EC2CFCED33FDD5F0F7AA357B00EA5204EB5205EC4D70048F36D0
:2001840080050E8E0780D18536F005F07401800225E0D5F0FB4235858137E536C40354F8A4
:2001A400FF243AF581C082C083E4C0E0C0E0C0E0C0E0E536C40354F8F5D0C0D0E53624308D
:2001C400F8A681853781D2AF85368222C2AFC0E0C0F0C082C083C0D0E5342430F8A681AFCE
:2001E400340F74035FF534E5347006E535FF20E0217401B53406E535FF20E1167402B534FD
:2002040006E535FF20E20B7403B534D3E535FF30E3CDE5342430F98781D0D0D083D082D0FF
:20022400F0D0E0D2AF22D20010AF02C2008534F005F07401800225E0D5F0FBF452357403D6
:20024400B534057534008005E53404F5348534F005F07E017F008006EE2EFEEF33FFD5F016
:20026400F7AC357D00EC5206ED5207EE4F60CFE5342430F98781D0D0D083D082D0F0D0E00C
:20028400A20092AF22C2AFC0E0C0F0C082C083C0D0E5342430F8A681AF340F74035FF53402
:2002A400E5347006E535FF20E0217401B53406E535FF20E1167402B53406E535FF20E20B52
:2002C4007403B534D3E535FF30E3CDE5342430F98781D0D0D083D082D0F0D0E0D2AF3222F6
:20005400C000A88118C0D0B6001B18B610004015B637005010C0E0E65407B406005004E6D5
:0A00740054F8F6D0E0D0D0D00032EE
:00000001FF
