:040000000201633264
:03000B0002016A85
:200010000000E2FBEAF2802C0000E0FBEAF08024E6B50202EBF62200E2B50202EBF22200D6
:20003000E0B50202EBF02230F6E0A88220F5D3EAC6F582228B822230F6E6A88220F5D980E6
:01005000CFE0
:03007E000200512C
:0300510002013C6D
:200081007525001203FFE58260F9C2AF120410858225D2AFE52260FC1522E52060FC15207D
:2000A100E5242427F8A6257402B524057524008005E52404F524052005211203FFE582606A
:2000C100C280F77526001204A2E58260F9C2AF1204AF858226D2AFE52260FC1522E52060F0
:2000E100FC1520E5242427F8A6267402B524057524008005E52404F524052005211204A21B
:20010100E58260C280F7E52160FC1521E52060FC1520E5232427F9872B052005227402B53B
:2001210023057523008005E52304F523852B8212039C120339E58270CD80F77520017521DD
:200141000075220375240075230075380112049C12033D9000811201969000C41201960268
:0F0161000107020170222222220202D50200545D
:2001700075890075A882D28C75350090013C120196858234E5342430F98781D0D0D083D0E8
:2001900082D0F0D0E022C2AF740FB535047582FF227536037F007E00BE0400502A8EF005D7
:2001B000F07C017D008006EC2CFCED33FDD5F0F7AA357B00EA5204EB5205EC4D70048F3684
:2001D00080050E8E0780D18536F005F07401800225E0D5F0FB4235858137E536C40354F858
:2001F000FF243AF581C082C083E4C0E0C0E0C0E0C0E0E536C40354F8F5D0C0D0E536243041
:20021000F8A681853781D2AF85368222C2AFC0E0C0F0C082C083C0D0E5342430F8A681AF81
:20023000340F74035FF534E5347006E535FF20E0217401B53406E535FF20E1167402B534B0
:2002500006E535FF20E20B7403B534D3E535FF30E3CDE5342430F98781D0D0D083D082D0B3
:20027000F0D0E0D2AF22D20010AF02C2008534F005F07401800225E0D5F0FBF4523574038A
:20029000B534057534008005E53404F5348534F005F07E017F008006EE2EFEEF33FFD5F0CA
:2002B000F7AC357D00EC5206ED5207EE4F60CFE5342430F98781D0D0D083D082D0F0D0E0C0
:2002D000A20092AF22C2AFC0E0C0F0C082C083C0D0E5342430F8A681E53825345403F534B1
:2002F000E534700FE538F4FF74014FF538E535FF20E0217401B53406E535FF20E116740211
:20031000B53406E535FF20E20B7403B534CAE535FF30E3C4E5342430F98781D0D0D083D06D
:0903300082D0F0D0E0D2AF3222FD
:20033900853C822212037275820712035075820F120350753C0122AF82753C0074F05FF57C
:2003590090D292C292EFC454F0F590D292C2927582281203FB753C0122753C00759020D25D
:2003790092C2927582281203FBD292C2927582281203FBD297D292C2927582281203FB75A3
:200399003C0122AF82753C0074F05F4408F590D293D292C292EFC454F0FF74084FF590D23A
:2003B90092C2927582281203FB753C0122AD82AE83AFF08D828E838FF012052BFCA3AD828D
:2003D900AE83EC601C8D828E838FF012052BF582C007C006C00512039CD005D006D007800E
:0603F900D222D582FD2294
:2003FF00E5A0F4F53BE53B60047582012275820022AEA07F00EEF4FEEFF4EE30E7047582EE
:20041F003722AEA07F00EEF4FEEFF4EE30E60475823622AEA07F00EEF4FEEFF4EE30E504E6
:20043F0075823522AEA07F00EEF4FEEFF4EE30E40475823422AEA07F00EEF4FEEFF4EE30BE
:20045F00E30475823322AEA07F00EEF4FEEFF4EE30E20475823222AEA07F00EEF4FEEFF4DB
:1D047F00EE30E10475823122AEA07F00EEF4FEEFF4EE30E00475823022758200221F
:20049C00D2B37580F0227580F0A2B3B39201E433F582227580F774B7B58004758231227476
:2004BC00D7B580047582322274E7B58004758233227580FB74BBB580047582342274DBB53C
:2004DC0080047582352274EBB58004758236227580FD74BDB580047582372274DDB5800411
:2004FC007582382274EDB58004758239227580FE74BEB5800475822A2274DEB58004758280
:0F051C00302274EEB5800475822322758200228E
:20005400C000A88118C0D0B6001B18B610004015B637005010C0E0E65407B406005004E6D5
:0A00740054F8F6D0E0D0D0D00032EE
:1C052B0020F71430F6148883A88220F507E6A88375830022E280F7E49322E022DF
:00000001FF
