:030000000200A05B
:200008000000E2FBEAF2802C0000E0FBEAF08024E6B50202EBF62200E2B50202EBF22200DE
:20002800E0B50202EBF02230F6E0A88220F5D3EAC6F582228B822230F6E6A88220F5D980EE
:01004800CFE8
:03004C0002004966
:0300490002009121
:20004F00752541120148E52770F9852527745AB5250575254180ECE52504F52580E5758996
:20006F0020758DFA759850D28E120148E52760F985279975270020990512014880F8C2990B
:18008F0080E775270075254190004F1200C502006D0200A72222222225
:2000A7007535009000911200C5858234E5342430F98781D0D0D083D082D0F0D0E022740F94
:2000C700B535047582FF227536037F007E00BE0400502A8EF005F07C017D008006EC2CFC25
:2000E700ED33FDD5F0F7AA357B00EA5204EB5205EC4D70048F3680050E8E0780D18536F0AE
:2001070005F07401800225E0D5F0FB4235858137E536C40354F8FF243AF581C082C0837479
:2001270000C0E0C0E0C0E0C0E0E536C40354F8F5D0C0D0E5362430F8A681853781853682AD
:2001470022C0E0C0F0C082C083C0D0E5342430F8A681AF340F74035FF534E5347006E535EB
:20016700FF20E0217401B53406E535FF20E1167402B53406E535FF20E20B7403B534D3E521
:2001870035FF30E3CDE5342430F98781D0D0D083D082D0F0D0E0228534F005F0740180026A
:2001A70025E0D5F0FBF452357403B534057534008005E53404F5348534F005F07E017F0083
:2001C7008006EE2EFEEF33FFD5F0F7AC357D00EC5206ED5207EE4F60CFE5342430F98781D9
:0B01E700D0D0D083D082D0F0D0E02236
:00000001FF
