:04000000020158326F
:03000B0002015F90
:200010000000E2FBEAF2802C0000E0FBEAF08024E6B50202EBF62200E2B50202EBF22200D6
:20003000E0B50202EBF02230F6E0A88220F5D3EAC6F582228B822230F6E6A88220F5D980E6
:01005000CFE0
:03007E000200512C
:0300510002013772
:20008100752541E52260FC1522E52060FC1520C2AFE5242427F8A6257402B52405752400DF
:2000A1008005E52404F524D2AF05200521745AB5250575254180CCE52504F52580C57526EC
:2000C10030E52260FC1522E52060FC1520C2AFE5242427F8A6267402B524057524008005C4
:2000E100E52404F524D2AF052005217439B5260575263080CCE52604F52680C54389207599
:200101008DFA759850D28EE52160FC1521E52060FC1520C2AFE5232427F987997402B52341
:20012100057523008005E52304F523D2AF052005221099D380FB7520017521007522037579
:2001410024007523007538019000BF12018B90008112018B0200FD020165222222220202A5
:04016100CA0200547A
:2001650075890075A882D28C75350090013712018B858234E5342430F98781D0D0D083D003
:2001850082D0F0D0E022C2AF740FB535047582FF227536037F007E00BE0400502A8EF005E2
:2001A500F07C017D008006EC2CFCED33FDD5F0F7AA357B00EA5204EB5205EC4D70048F368F
:2001C50080050E8E0780D18536F005F07401800225E0D5F0FB4235858137E536C40354F863
:2001E500FF243AF581C082C083E4C0E0C0E0C0E0C0E0E536C40354F8F5D0C0D0E53624304C
:20020500F8A681853781D2AF85368222C2AFC0E0C0F0C082C083C0D0E5342430F8A681AF8C
:20022500340F74035FF534E5347006E535FF20E0217401B53406E535FF20E1167402B534BB
:2002450006E535FF20E20B7403B534D3E535FF30E3CDE5342430F98781D0D0D083D082D0BE
:20026500F0D0E0D2AF22D20010AF02C2008534F005F07401800225E0D5F0FBF45235740395
:20028500B534057534008005E53404F5348534F005F07E017F008006EE2EFEEF33FFD5F0D5
:2002A500F7AC357D00EC5206ED5207EE4F60CFE5342430F98781D0D0D083D082D0F0D0E0CB
:2002C500A20092AF22C2AFC0E0C0F0C082C083C0D0E5342430F8A681E53825345403F534BC
:2002E500E534700FE538F4FF74014FF538E535FF20E0217401B53406E535FF20E11674021C
:20030500B53406E535FF20E20B7403B534CAE535FF30E3C4E5342430F98781D0D0D083D078
:0903250082D0F0D0E0D2AF322208
:20005400C000A88118C0D0B6001B18B610004015B637005010C0E0E65407B406005004E6D5
:0A00740054F8F6D0E0D0D0D00032EE
:00000001FF
